{
  "address": "0x2aF46Eb6Dd14B5a09049f59351da0dCcdC185025",
  "abi": [
    {
      "inputs": [
        {
          "internalType": "address",
          "name": "priceFeedAddress",
          "type": "address"
        }
      ],
      "stateMutability": "nonpayable",
      "type": "constructor"
    },
    {
      "inputs": [],
      "name": "FundMe_notOwner",
      "type": "error"
    },
    {
      "stateMutability": "payable",
      "type": "fallback"
    },
    {
      "inputs": [],
      "name": "MINIMUM_USD",
      "outputs": [
        {
          "internalType": "uint256",
          "name": "",
          "type": "uint256"
        }
      ],
      "stateMutability": "view",
      "type": "function"
    },
    {
      "inputs": [
        {
          "internalType": "address",
          "name": "",
          "type": "address"
        }
      ],
      "name": "addressToAmountFunder",
      "outputs": [
        {
          "internalType": "uint256",
          "name": "",
          "type": "uint256"
        }
      ],
      "stateMutability": "view",
      "type": "function"
    },
    {
      "inputs": [],
      "name": "fund",
      "outputs": [],
      "stateMutability": "payable",
      "type": "function"
    },
    {
      "inputs": [
        {
          "internalType": "uint256",
          "name": "",
          "type": "uint256"
        }
      ],
      "name": "funders",
      "outputs": [
        {
          "internalType": "address",
          "name": "",
          "type": "address"
        }
      ],
      "stateMutability": "view",
      "type": "function"
    },
    {
      "inputs": [],
      "name": "i_owner",
      "outputs": [
        {
          "internalType": "address",
          "name": "",
          "type": "address"
        }
      ],
      "stateMutability": "view",
      "type": "function"
    },
    {
      "inputs": [],
      "name": "priceFeed",
      "outputs": [
        {
          "internalType": "contract AggregatorV3Interface",
          "name": "",
          "type": "address"
        }
      ],
      "stateMutability": "view",
      "type": "function"
    },
    {
      "inputs": [],
      "name": "widraw",
      "outputs": [],
      "stateMutability": "nonpayable",
      "type": "function"
    },
    {
      "stateMutability": "payable",
      "type": "receive"
    }
  ],
  "transactionHash": "0x7d85dc414673beed786dca9738ea5841489adeb7832fb23ba66ea2734b3c1620",
  "args": [
    "0xD4a33860578De61DBAbDc8BFdb98FD742fA7028e"
  ],
  "numDeployments": 2,
  "solcInputHash": "e9b0d204b45030a133f7203f753e0653",
  "bytecode": "0x60a060405234801561001057600080fd5b50604051610f7d380380610f7d83398181016040528101906100329190610110565b3373ffffffffffffffffffffffffffffffffffffffff1660808173ffffffffffffffffffffffffffffffffffffffff168152505080600260006101000a81548173ffffffffffffffffffffffffffffffffffffffff021916908373ffffffffffffffffffffffffffffffffffffffff1602179055505061013d565b600080fd5b600073ffffffffffffffffffffffffffffffffffffffff82169050919050565b60006100dd826100b2565b9050919050565b6100ed816100d2565b81146100f857600080fd5b50565b60008151905061010a816100e4565b92915050565b600060208284031215610126576101256100ad565b5b6000610134848285016100fb565b91505092915050565b608051610e1e61015f60003960008181610306015261061a0152610e1e6000f3fe6080604052600436106100745760003560e01c8063b77745ea1161004e578063b77745ea146100ed578063c20089f414610104578063dba6335f14610141578063dc0d3dff1461016c57610083565b80636b69a5921461008d578063741bef1a146100b8578063b60d4288146100e357610083565b36610083576100816101a9565b005b61008b6101a9565b005b34801561009957600080fd5b506100a26102d1565b6040516100af9190610808565b60405180910390f35b3480156100c457600080fd5b506100cd6102de565b6040516100da91906108a2565b60405180910390f35b6100eb6101a9565b005b3480156100f957600080fd5b50610102610304565b005b34801561011057600080fd5b5061012b60048036038101906101269190610900565b610600565b6040516101389190610808565b60405180910390f35b34801561014d57600080fd5b50610156610618565b604051610163919061093c565b60405180910390f35b34801561017857600080fd5b50610193600480360381019061018e9190610983565b61063c565b6040516101a0919061093c565b60405180910390f35b6802b5e3af16b18800006101e8600260009054906101000a900473ffffffffffffffffffffffffffffffffffffffff163461067b90919063ffffffff16565b11610228576040517f08c379a000000000000000000000000000000000000000000000000000000000815260040161021f90610a33565b60405180910390fd5b6000339080600181540180825580915050600190039060005260206000200160009091909190916101000a81548173ffffffffffffffffffffffffffffffffffffffff021916908373ffffffffffffffffffffffffffffffffffffffff16021790555034600160003373ffffffffffffffffffffffffffffffffffffffff1673ffffffffffffffffffffffffffffffffffffffff16815260200190815260200160002081905550565b6802b5e3af16b188000081565b600260009054906101000a900473ffffffffffffffffffffffffffffffffffffffff1681565b7f000000000000000000000000000000000000000000000000000000000000000073ffffffffffffffffffffffffffffffffffffffff163373ffffffffffffffffffffffffffffffffffffffff1614610389576040517fd72551ca00000000000000000000000000000000000000000000000000000000815260040160405180910390fd5b60005b60008054905081101561042f576000600160008084815481106103b2576103b1610a53565b5b9060005260206000200160009054906101000a900473ffffffffffffffffffffffffffffffffffffffff1673ffffffffffffffffffffffffffffffffffffffff1673ffffffffffffffffffffffffffffffffffffffff168152602001908152602001600020819055506001816104289190610ab1565b905061038c565b50600067ffffffffffffffff81111561044b5761044a610ae5565b5b6040519080825280602002602001820160405280156104795781602001602082028036833780820191505090505b506000908051906020019061048f929190610748565b503373ffffffffffffffffffffffffffffffffffffffff166108fc479081150290604051600060405180830381858888f193505050501580156104d6573d6000803e3d6000fd5b5060003373ffffffffffffffffffffffffffffffffffffffff166108fc479081150290604051600060405180830381858888f19350505050905080610550576040517f08c379a000000000000000000000000000000000000000000000000000000000815260040161054790610b60565b60405180910390fd5b60003373ffffffffffffffffffffffffffffffffffffffff164760405161057690610bb1565b60006040518083038185875af1925050503d80600081146105b3576040519150601f19603f3d011682016040523d82523d6000602084013e6105b8565b606091505b50509050806105fc576040517f08c379a00000000000000000000000000000000000000000000000000000000081526004016105f390610b60565b60405180910390fd5b5050565b60016020528060005260406000206000915090505481565b7f000000000000000000000000000000000000000000000000000000000000000081565b6000818154811061064c57600080fd5b906000526020600020016000915054906101000a900473ffffffffffffffffffffffffffffffffffffffff1681565b600080610687836106b7565b90506000670de0b6b3a764000085836106a09190610bc6565b6106aa9190610c37565b9050809250505092915050565b6000808273ffffffffffffffffffffffffffffffffffffffff1663feaf968c6040518163ffffffff1660e01b815260040160a060405180830381865afa158015610705573d6000803e3d6000fd5b505050506040513d601f19601f820116820180604052508101906107299190610cf5565b5050509150506402540be400816107409190610d70565b915050919050565b8280548282559060005260206000209081019282156107c1579160200282015b828111156107c05782518260006101000a81548173ffffffffffffffffffffffffffffffffffffffff021916908373ffffffffffffffffffffffffffffffffffffffff16021790555091602001919060010190610768565b5b5090506107ce91906107d2565b5090565b5b808211156107eb5760008160009055506001016107d3565b5090565b6000819050919050565b610802816107ef565b82525050565b600060208201905061081d60008301846107f9565b92915050565b600073ffffffffffffffffffffffffffffffffffffffff82169050919050565b6000819050919050565b600061086861086361085e84610823565b610843565b610823565b9050919050565b600061087a8261084d565b9050919050565b600061088c8261086f565b9050919050565b61089c81610881565b82525050565b60006020820190506108b76000830184610893565b92915050565b600080fd5b60006108cd82610823565b9050919050565b6108dd816108c2565b81146108e857600080fd5b50565b6000813590506108fa816108d4565b92915050565b600060208284031215610916576109156108bd565b5b6000610924848285016108eb565b91505092915050565b610936816108c2565b82525050565b6000602082019050610951600083018461092d565b92915050565b610960816107ef565b811461096b57600080fd5b50565b60008135905061097d81610957565b92915050565b600060208284031215610999576109986108bd565b5b60006109a78482850161096e565b91505092915050565b600082825260208201905092915050565b7f596f7520617265206e6f7420656c696769626c652079657420666f7220646f6e60008201527f617465206d696e696d756d20616d6f756e74206f662066756e642e2e2e2e0000602082015250565b6000610a1d603e836109b0565b9150610a28826109c1565b604082019050919050565b60006020820190508181036000830152610a4c81610a10565b9050919050565b7f4e487b7100000000000000000000000000000000000000000000000000000000600052603260045260246000fd5b7f4e487b7100000000000000000000000000000000000000000000000000000000600052601160045260246000fd5b6000610abc826107ef565b9150610ac7836107ef565b9250828201905080821115610adf57610ade610a82565b5b92915050565b7f4e487b7100000000000000000000000000000000000000000000000000000000600052604160045260246000fd5b7f5472616e73666572204661696c65642e2e2e2e2e2e0000000000000000000000600082015250565b6000610b4a6015836109b0565b9150610b5582610b14565b602082019050919050565b60006020820190508181036000830152610b7981610b3d565b9050919050565b600081905092915050565b50565b6000610b9b600083610b80565b9150610ba682610b8b565b600082019050919050565b6000610bbc82610b8e565b9150819050919050565b6000610bd1826107ef565b9150610bdc836107ef565b9250828202610bea816107ef565b91508282048414831517610c0157610c00610a82565b5b5092915050565b7f4e487b7100000000000000000000000000000000000000000000000000000000600052601260045260246000fd5b6000610c42826107ef565b9150610c4d836107ef565b925082610c5d57610c5c610c08565b5b828204905092915050565b600069ffffffffffffffffffff82169050919050565b610c8781610c68565b8114610c9257600080fd5b50565b600081519050610ca481610c7e565b92915050565b6000819050919050565b610cbd81610caa565b8114610cc857600080fd5b50565b600081519050610cda81610cb4565b92915050565b600081519050610cef81610957565b92915050565b600080600080600060a08688031215610d1157610d106108bd565b5b6000610d1f88828901610c95565b9550506020610d3088828901610ccb565b9450506040610d4188828901610ce0565b9350506060610d5288828901610ce0565b9250506080610d6388828901610c95565b9150509295509295909350565b6000610d7b82610caa565b9150610d8683610caa565b9250828202610d9481610caa565b91507f80000000000000000000000000000000000000000000000000000000000000008414600084121615610dcc57610dcb610a82565b5b8282058414831517610de157610de0610a82565b5b509291505056fea26469706673582212203c1340fd526311d96ef9e0a7904dc2f3324917532f63594f209ff9a02de3820e64736f6c63430008110033",
  "devdoc": {
    "author": "Shivang Kushwaha",
    "details": "This implements price feeds as our library",
    "kind": "dev",
    "methods": {},
    "title": "A COntract For crowd funding",
    "version": 1
  },
  "userdoc": {
    "kind": "user",
    "methods": {},
    "notice": "This contract is demon",
    "version": 1
  },
  "storageLayout": {
    "storage": [
      {
        "astId": 62,
        "contract": "contracts/FundMe.sol:FundMe",
        "label": "funders",
        "offset": 0,
        "slot": "0",
        "type": "t_array(t_address)dyn_storage"
      },
      {
        "astId": 66,
        "contract": "contracts/FundMe.sol:FundMe",
        "label": "addressToAmountFunder",
        "offset": 0,
        "slot": "1",
        "type": "t_mapping(t_address,t_uint256)"
      },
      {
        "astId": 71,
        "contract": "contracts/FundMe.sol:FundMe",
        "label": "priceFeed",
        "offset": 0,
        "slot": "2",
        "type": "t_contract(AggregatorV3Interface)45"
      }
    ],
    "types": {
      "t_address": {
        "encoding": "inplace",
        "label": "address",
        "numberOfBytes": "20"
      },
      "t_array(t_address)dyn_storage": {
        "base": "t_address",
        "encoding": "dynamic_array",
        "label": "address[]",
        "numberOfBytes": "32"
      },
      "t_contract(AggregatorV3Interface)45": {
        "encoding": "inplace",
        "label": "contract AggregatorV3Interface",
        "numberOfBytes": "20"
      },
      "t_mapping(t_address,t_uint256)": {
        "encoding": "mapping",
        "key": "t_address",
        "label": "mapping(address => uint256)",
        "numberOfBytes": "32",
        "value": "t_uint256"
      },
      "t_uint256": {
        "encoding": "inplace",
        "label": "uint256",
        "numberOfBytes": "32"
      }
    }
  }
}